:020000040000FA
:100000000C9464070C948C070C948C070C948C074C
:100010000C948C070C948C070C948C070C948C0714
:100020000C948C070C948C070C948C070C948C0704
:100030000C948C070C948C070C948C070C948C07F4
:100040000C94BA170C948C070C9488170C946217B4
:100050000C948C070C948C070C948C070C948C07D4
:100060000C9404180C948C070000000000000000A1
:10007000E4E8E4E8E4E8E4E8E4E8E4E8E4E8E4E820
:100080000000000000000000000000000000000070
:10009000E4E8E4E8E4E8E4E8E4E8E4E8E4E8E4E800
:1000A0000000000000000000000000000000000050
:1000B000E4E8E4E8E4E8E4E8E4E8E4E8FFFFFFFF7C
:1000C000E4E8E4E800000000000000000000000098
:1000D000E4E8E4E8E4E8E4E8E4E8E4E8FFFFFFFF5C
:1000E000E4E8E4E800000000000000000000000078
:1000F0004FFF4FFF8F008F004FFF4FFF8F008F008C
:1001000000000000000000000000000000000000EF
:100110004FFF4FFF8F008F004FFF4FFF8F008F006B
:1001200000000000000000000000000000000000CF
:100130004FFF4FFF4FFF4FFF8079807980798079A3
:1001400000000000000000000000000000000000AF
:100150004FFF4FFF4FFF4FFF807980798079807983
:1001600000000000000000004FFF4FFFE4E8E4E85B
:100170008F008F00E4E8E4E8E4E8E4E88F008F0013
:10018000E4E8E4E84FFF4FFF4FFF4FFFE4E8E4E807
:100190008F008F00E4E8E4E8E4E8E4E88F008F00F3
:1001A000E4E8E4E84FFF4FFF00000000000000001B
:1001B0008F008F008F008F008F008F008F008F00C7
:1001C000000000000000000000000000000000002F
:1001D0008F008F008F008F008F008F008F008F00A7
:1001E000000000000000000000000000000000000F
:1001F0008F008F008F008F008F008F008F008F0087
:1002000000000000000000000000000000000000EE
:100210008F008F008F008F008F008F008F008F0066
:1002200000000000000000000000000000000000CE
:10023000807980790000000000000000A038A0381C
:1002400000000000000000000000000000000000AE
:10025000807980790000000000000000A038A038FC
:10026000000000000000000000000000000000008E
:10027000E4E8E4E8E4E8E4E8E4E8E4E8E4E8E4E81E
:10028000000000000000000000000000000000006E
:10029000E4E8E4E8E4E8E4E8E4E8E4E8E4E8E4E8FE
:1002A000000000000000000000000000000000004E
:1002B000E4E8E4E8E4E8E4E8E4E8E4E8FFFFFFFF7A
:1002C000E4E8E4E800000000000000000000000096
:1002D000E4E8E4E8E4E8E4E8E4E8E4E8FFFFFFFF5A
:1002E000E4E8E4E800000000000000000000000076
:1002F0004FFF4FFF8F008F004FFF4FFF8F008F008A
:1003000000000000000000000000000000000000ED
:100310004FFF4FFF8F008F004FFF4FFF8F008F0069
:1003200000000000000000000000000000000000CD
:100330004FFF4FFF4FFF4FFF8079807980798079A1
:1003400000000000000000000000000000000000AD
:100350004FFF4FFF4FFF4FFF807980798079807981
:1003600000000000000000004FFF4FFFE4E8E4E859
:100370008F008F00E4E8E4E8E4E8E4E88F008F0011
:10038000E4E8E4E84FFF4FFF4FFF4FFFE4E8E4E805
:100390008F008F00E4E8E4E8E4E8E4E88F008F00F1
:1003A000E4E8E4E84FFF4FFF000000000000000019
:1003B0008F008F008F008F008F008F008F008F00C5
:1003C000000000000000000000000000000000002D
:1003D0008F008F008F008F008F008F008F008F00A5
:1003E000000000000000000000000000000000000D
:1003F0008F008F008F008F008F008F008F008F0085
:1004000000000000000000000000000000000000EC
:100410008F008F008F008F008F008F008F008F0064
:1004200000000000000000000000000000000000CC
:100430000000000080798079A038A038000000001A
:1004400000000000000000000000000000000000AC
:100450000000000080798079A038A03800000000FA
:10046000000000000000000000000000000000008C
:10047000E4E8E4E8E4E8E4E8E4E8E4E8E4E8E4E81C
:10048000000000000000000000000000000000006C
:10049000E4E8E4E8E4E8E4E8E4E8E4E8E4E8E4E8FC
:1004A000000000000000000000000000000000004C
:1004B000E4E8E4E8E4E8E4E8E4E8E4E8FFFFFFFF78
:1004C000E4E8E4E800000000000000000000000094
:1004D000E4E8E4E8E4E8E4E8E4E8E4E8FFFFFFFF58
:1004E000E4E8E4E800000000000000000000000074
:1004F0004FFF4FFF8F008F004FFF4FFF8F008F0088
:1005000000000000000000000000000000000000EB
:100510004FFF4FFF8F008F004FFF4FFF8F008F0067
:1005200000000000000000000000000000000000CB
:100530004FFF4FFF4FFF4FFF80798079807980799F
:1005400000000000000000000000000000000000AB
:100550004FFF4FFF4FFF4FFF80798079807980797F
:1005600000000000000000004FFF4FFFE4E8E4E857
:100570008F008F00E4E8E4E8E4E8E4E88F008F000F
:10058000E4E8E4E84FFF4FFF4FFF4FFFE4E8E4E803
:100590008F008F00E4E8E4E8E4E8E4E88F008F00EF
:1005A000E4E8E4E84FFF4FFF000000000000000017
:1005B0008F008F008F008F008F008F008F008F00C3
:1005C000000000000000000000000000000000002B
:1005D0008F008F008F008F008F008F008F008F00A3
:1005E000000000000000000000000000000000000B
:1005F0008F008F008F008F008F008F008F008F0083
:1006000000000000000000000000000000000000EA
:100610008F008F008F008F008F008F008F008F0062
:1006200000000000000000000000000000000000CA
:10063000A038A03800000000000000008079807918
:1006400000000000000000000000000000000000AA
:10065000A038A038000000000000000080798079F8
:10066000000000000000000000000000000000008A
:10067000E4E8E4E8E4E8E4E8E4E8E4E8E4E8E4E81A
:10068000000000000000000000000000000000006A
:10069000E4E8E4E8E4E8E4E8E4E8E4E8E4E8E4E8FA
:1006A000000000000000000000000000000000004A
:1006B000E4E8E4E8E4E8E4E8E4E8E4E8FFFFFFFF76
:1006C000E4E8E4E800000000000000000000000092
:1006D000E4E8E4E8E4E8E4E8E4E8E4E8FFFFFFFF56
:1006E000E4E8E4E800000000000000000000000072
:1006F0004FFF4FFF8F008F004FFF4FFF8F008F0086
:1007000000000000000000000000000000000000E9
:100710004FFF4FFF8F008F004FFF4FFF8F008F0065
:1007200000000000000000000000000000000000C9
:100730004FFF4FFF4FFF4FFF80798079807980799D
:1007400000000000000000000000000000000000A9
:100750004FFF4FFF4FFF4FFF80798079807980797D
:1007600000000000000000004FFF4FFFE4E8E4E855
:100770008F008F00E4E8E4E8E4E8E4E88F008F000D
:10078000E4E8E4E84FFF4FFF4FFF4FFFE4E8E4E801
:100790008F008F00E4E8E4E8E4E8E4E88F008F00ED
:1007A000E4E8E4E84FFF4FFF000000000000000015
:1007B0008F008F008F008F008F008F008F008F00C1
:1007C0000000000000000000000000000000000029
:1007D0008F008F008F008F008F008F008F008F00A1
:1007E0000000000000000000000000000000000009
:1007F0008F008F008F008F008F008F008F008F0081
:1008000000000000000000000000000000000000E8
:100810008F008F008F008F008F008F008F008F0060
:1008200000000000000000000000000000000000C8
:1008300000000000A038A038807980790000000016
:1008400000000000000000000000000000000000A8
:1008500000000000A038A0388079807900000000F6
:100860000000000000000000000000000000000088
:1008700000800000000000000001FF800000000078
:10088000000000C3FF800000000000000FC3FF80D5
:100890000000000003E00FC3E0000000000007F0CC
:1008A0001FC1E000000000F807F01FC1E00000FCDD
:1008B00001FC07F81FC1E00007FC01FC03F81FE181
:1008C000FF801FFC01DE03BC3DE1FF803FFE01DE37
:1008D00003BC39E1FF807E0003DF03DE39E1FC0069
:1008E0007C0003CF03DE39E1E000F80003CF03CF43
:1008F00039E1F000F800038783CF79E0F000F07F62
:10090000078783C7F1E0F0E0F0FF0783C3C7F1E09A
:10091000FFE0F0FF07FFC1C3F1F0FFE0F0FF07FFCA
:10092000E1C3F0F0FFE0F80F0FFFE1C1E0F0E000FD
:10093000F80F8F01F1E1E0F000007C0F8F00F1E192
:10094000E00000007F1F8F00F9C0000000003FFFA3
:100950009F000000000000001FFF1F0000000000BB
:10096000000007FC00000000000000000000000084
:10097000003E5B4F5B3E3E6B4F6B3E1C3E7C3E1C25
:10098000183C7E3C181C577D571C1C5E7F5E1C006B
:10099000183C1800FFE7C3E7FF0018241800FFE722
:1009A000DBE7FF30483A060E2629792926407F05E5
:1009B0000507407F05253F5A3CE73C5A7F3E1C1CFB
:1009C00008081C1C3E7F14227F22145F5F005F5FBB
:1009D00006097F017F006689956A606060606094A7
:1009E000A2FFA29408047E040810207E20100808AC
:1009F0002A1C08081C2A08081E101010100C1E0CB7
:100A00001E0C30383E3830060E3E0E060000000048
:100A10000000005F00000007000700147F147F142F
:100A2000242A7F2A12231308646236495620500074
:100A300008070300001C2241000041221C002A1C60
:100A40007F1C2A08083E080800807030000808084B
:100A50000808000060600020100804023E5149456B
:100A60003E00427F400072494949462141494D3389
:100A70001814127F1027454545393C4A49493141F0
:100A8000211109073649494936464949291E0000BE
:100A90001400000040340000000814224114141413
:100AA0001414004122140802015909063E415D59FF
:100AB0004E7C1211127C7F494949363E4141412208
:100AC0007F4141413E7F494949417F090909013E32
:100AD000414151737F0808087F00417F4100204059
:100AE000413F017F081422417F404040407F021C6B
:100AF000027F7F0408107F3E4141413E7F09090982
:100B0000063E4151215E7F0919294626494949324D
:100B100003017F01033F4040403F1F2040201F3F13
:100B20004038403F63140814630304780403615998
:100B3000494D43007F4141410204081020004141DA
:100B4000417F040201020440404040400003070886
:100B50000020545478407F28444438384444442882
:100B6000384444287F385454541800087E09021829
:100B7000A4A49C787F0804047800447D40002040B1
:100B8000403D007F1028440000417F40007C0478F5
:100B900004787C080404783844444438FC1824243D
:100BA0001818242418FC7C080404084854545424BD
:100BB00004043F44243C4040207C1C2040201C3C3A
:100BC0004030403C44281028444C9090907C446431
:100BD000544C4400083641000000770000004136C4
:100BE000080002010204023C2623263C1EA1A1614A
:100BF000123A4040207A385454555921555579417C
:100C00002254547842215554784020545579400C50
:100C10001E52721239555555593954545459395533
:100C20005454580000457C410002457D4200014576
:100C30007C407D1211127DF0282528F07C5455450A
:100C4000002054547C547C0A097F49324949493276
:100C50003A4444443A324A4848303A4141217A3A87
:100C600042402078009DA0A07D3D4242423D3D4053
:100C700040403D3C24FF2424487E4943662B2FFC02
:100C80002F2BFF0929F620C0887E090320545479B0
:100C9000410000447D413048484A32384040227A81
:100CA000007A0A0A727D0D19317D2629292F2826FE
:100CB0002929292630484D40203808080808080806
:100CC0000808382F10C8ACBA2F102834FA00007B5F
:100CD000000008142A142222142A14085500550072
:100CE00055AA55AA55AAFF55FF55FF000000FF0061
:100CF000101010FF00141414FF001010FF00FF105C
:100D000010F010F0141414FC001414F700FF00008D
:100D1000FF00FF1414F404FC141417101F10101F0C
:100D2000101F1414141F00101010F0000000001FFA
:100D3000101010101F10101010F010000000FF1005
:100D40001010101010101010FF10000000FF140001
:100D500000FF00FF00001F10170000FC04F4141433
:100D60001710171414F404F40000FF00F7141414FF
:100D700014141414F700F7141414171410101F107F
:100D80001F141414F4141010F010F000001F101FA2
:100D90000000001F14000000FC140000F010F01010
:100DA00010FF10FF141414FF141010101F00000087
:100DB00000F010FFFFFFFFFFF0F0F0F0F0FFFFFF8B
:100DC0000000000000FFFF0F0F0F0F0F38444438E2
:100DD00044FC4A4A4A347E02020606027E027E0231
:100DE00063554941633844443C04407E201E20063C
:100DF000027E020299A5E7A5991C2A492A1C4C7279
:100E000001724C304A4D4D303048784830BC625AFF
:100E1000463D3E494949007E0101017E2A2A2A2A8F
:100E20002A44445F444440514A444040444A51406B
:100E30000000FF0103E080FF000008086B6B08362C
:100E400012362436060F090F06000018180000009D
:100E50001010003040FF0101001F01011E00191D8C
:100E60001712003C3C3C3C00000000000000000069
:100E7000240027002A0000000000250028002B0085
:100E800000000000230026002900040404040404D8
:100E90000404020202020202030303030303010229
:100EA00004081020408001020408102001020408F8
:100EB00010200000000800020100000304070000E9
:100EC0000000000000001F1911241FBECFEFD8E062
:100ED000DEBFCDBF22E0A0EEB1E001C01D92AE3F6B
:100EE000B207E1F711E0A0E0B1E0E0E9FAE402C006
:100EF00005900D92A03EB107D9F717E0C4E6D7E000
:100F000004C02197FE010E944923C336D107C9F7C7
:100F10000E944C190C9446250C940000AF92BF928D
:100F2000CF92DF92EF92FF920F931F93CF93DF93B5
:100F30006C017B018B01040F151FEB015E01AE18E4
:100F4000BF08C017D10759F06991D601ED91FC9106
:100F50000190F081E02DC6010995892B79F7C50133
:100F6000DF91CF911F910F91FF90EF90DF90CF9085
:100F7000BF90AF900895FC01538D448D252F30E034
:100F8000842F90E0821B930B541710F0CF96089596
:100F900001970895FC01918D828D981761F0A28DC3
:100FA000AE0FBF2FB11D5D968C91928D9F5F9F7389
:100FB000928F90E008958FEF9FEF0895FC01918D3F
:100FC000828D981731F0828DE80FF11D858D90E0AC
:100FD00008958FEF9FEF0895FC01918D228D892F49
:100FE00090E0805C9F4F821B91098F739927089531
:100FF000FC01A48DA80FB92FB11DA35ABF4F2C918E
:10100000848D90E001968F739927848FA689B78984
:101010002C93A089B1898C91837080648C93938D7B
:10102000848D981306C00288F389E02D80818F7D1E
:1010300080830895EF92FF920F931F93CF93DF93D6
:10104000EC0181E0888F9B8D8C8D98131AC0E88904
:10105000F989808185FF15C09FB7F894EE89FF89D3
:101060006083E889F98980818370806480839FBF71
:1010700081E090E0DF91CF911F910F91FF90EF9071
:101080000895F62E0B8D10E00F5F1F4F0F73112781
:10109000E02E8C8D8E110CC00FB607FCFACFE889BC
:1010A000F989808185FFF5CFCE010E94F807F1CF45
:1010B000EB8DEC0FFD2FF11DE35AFF4FF0829FB730
:1010C000F8940B8FEA89FB8980818062CFCFCF9320
:1010D000DF93EC01888D8823B9F0AA89BB89E88960
:1010E000F9898C9185FD03C0808186FD0DC00FB606
:1010F00007FCF7CF8C9185FFF2CF808185FFEDCF84
:10110000CE010E94F807E9CFDF91CF910895833097
:1011100081F028F4813099F08230A9F00895873069
:10112000A9F08830C9F08430B1F4809180008F7DBF
:1011300003C0809180008F7780938000089584B5EC
:101140008F7784BD089584B58F7DFBCF8091B000EB
:101150008F778093B00008958091B0008F7DF9CF94
:10116000CF93DF93282F30E0F901EE54F14F8491B3
:10117000F901E256F14FD491F901E657F14FC491CC
:10118000CC23A1F081110E948708EC2FF0E0EE0F34
:10119000FF1FE058F14FA591B491EC91ED2381E050
:1011A00090E009F480E0DF91CF91089580E090E035
:1011B000FACF1F93CF93DF93282F30E0F901EE543D
:1011C000F14F8491F901E256F14FD491F901E657BC
:1011D000F14FC491CC23A9F0162F81110E948708EA
:1011E000EC2FF0E0EE0FFF1FEA58F14FA591B491FC
:1011F0008FB7F894EC91111108C0D095DE23DC93E1
:101200008FBFDF91CF911F910895DE2BF8CFCF9341
:10121000DF9390E0FC01E256F14F24918657914F05
:10122000FC0184918823C9F090E0880F991FFC018C
:10123000E459F14FA591B491FC01EA58F14FC591E1
:10124000D49161110DC09FB7F8948C9120958223A1
:101250008C938881282328839FBFDF91CF910895A5
:10126000623051F49FB7F8943C91822F809583238C
:101270008C93E8812E2BEFCF8FB7F894EC912E2B27
:101280002C938FBFEACF3FB7F89480915902909189
:101290005A02A0915B02B0915C0226B5A89B05C0E2
:1012A0002F3F19F00196A11DB11D3FBFBA2FA92FE5
:1012B000982F8827BC01CD01620F711D811D911DE2
:1012C00042E0660F771F881F991F4A95D1F708954E
:1012D0008F929F92AF92BF92CF92DF92EF92FF9246
:1012E0004B015C010E9443096B017C010E94430990
:1012F0006C197D098E099F09683E7340810591052F
:10130000A8F321E0821A9108A108B10888EEC80E5E
:1013100083E0D81EE11CF11C81149104A104B104E6
:1013200029F7FF90EF90DF90CF90BF90AF909F9004
:101330008F90089520910A02260F3327331F213200
:101340003105ECF420912E02FC0190E080E0243085
:1013500069F082E00895A0910A022191AC01465102
:101360005E4FA40FB52FB11D2C930196861798F3ED
:1013700080910A02680F60930A0280E0089581E07C
:10138000089508958FEF9FEF08958FEF9FEF0895D1
:101390008091E30190E09195819591090895CF9313
:1013A000DF93CB01EA01642F0E949A09CE01DF91FD
:1013B000CF910895CF93DF931F92CDB7DEB76983A6
:1013C00061E0CE0101960E949A0981E090E00F90C1
:1013D000DF91CF910895CF93CFB7F8948091E20138
:1013E000811127C0E4E9FEE08491E8EAFEE09491EF
:1013F000E82FF0E0EE0FFF1FE459F14FA591B491F3
:10140000EC91E92321F461E08AE00E94D90861E0CF
:101410008AE00E9407098CB580618CBD8CB5806420
:101420008CBD61E08DE00E94070961E08BE00E94C5
:1014300007098091E2018F5F8093E201CFBFCF91D6
:1014400008958FB7F8948091E1018FBF0895FC0152
:10145000A5A1B6A18C9192A589238C93A5A1B6A133
:101460008C9191A5892B8C9308950F931F93CF9303
:10147000DF93EC018B018DA981110DC01EBD0DB450
:1014800007FEFDCF0EBD0DB407FEFDCFDF91CF915E
:101490001F910F9108958130E9F480E1E9A1FAA14B
:1014A000908117FF14C02DA1922B9083EBA1FCA17A
:1014B00090812FA1922B9083EBA1FCA1908128A574
:1014C00092239083000F111F815041F7DFCF2EA18F
:1014D0009223EBCFEF8DF8A11083CE010E94270A53
:1014E000EF8DF8A10083CE01DF91CF911F910F9175
:1014F0000C94270AFC0185A9811105C06EBD0DB4AD
:1015000007FEFDCF08958130E1F488E0A1A1B2A1EA
:101510009C9167FF13C025A1922B9C93A3A1B4A11A
:101520009C9127A1922B9C93660FA3A1B4A19C919F
:1015300020A592239C93815049F7089526A19223D8
:10154000ECCFA78DB0A16C93CF010C94270A1F9309
:10155000CF93DF93EC01162FE881F9810284F385A4
:10156000E02D09951123D1F06DADED8DFE8D8081BB
:101570009CA989238083CE010E947A0AED8DFE8D7D
:1015800080819BA9892B8083E881F9810688F7896E
:10159000E02DCE01DF91CF911F9109946EADE5CF83
:1015A000AF92BF92CF92DF92EF92FF920F931F9371
:1015B000CF93DF93EC0177FD38C088859985681754
:1015C00079079CF557FD31C08A859B8548175907D7
:1015D00064F569017A015B01E881F9810284F38590
:1015E000E02DCE010995E881F98102A4F3A5E02D53
:1015F00001E010E021E030E0A701B501CE0109953E
:10160000B601CE010E94350AE881F9810688F78982
:10161000E02DCE01DF91CF911F910F91FF90EF90C0
:10162000DF90CF90BF90AF900994DF91CF911F9141
:101630000F91FF90EF90DF90CF90BF90AF90089503
:101640008F929F92AF92BF92CF92DF92EF92FF92D2
:101650000F931F93CF93DF93EC0149015701E8816A
:10166000F98102A4F3A5E02D09959401D8010E9407
:101670003A236B017C01C114D104E104F10409F4A3
:1016800090C08DA9811115C081E0C81AD108E10868
:10169000F1088FEFC816D806E806F80609F481C0ED
:1016A000BEBC0DB407FEFDCFAEBC0DB407FEFDCF32
:1016B000EBCF813009F045C081E0C81AD108E108BC
:1016C000F1088FEFC816D806E806F80609F469C0D5
:1016D0009B2D88E0E9A1FAA1208197FF2CC03DA1B4
:1016E000232B2083EBA1FCA120813FA1232B20836E
:1016F000EBA1FCA1208138A523232083990F8150E1
:1017000049F79A2D88E0E9A1FAA1208197FF16C038
:101710003DA1232B2083EBA1FCA120813FA1232B02
:101720002083EBA1FCA1208138A523232083990FDE
:10173000815049F7C1CF3EA12323D3CF3EA123231C
:10174000E9CFBA1016C0CC0CDD1CEE1CFF1CEF8DCF
:10175000F8A1B08281E0C81AD108E108F1088FEF42
:10176000C816D806E806F806E1F0CE010E94270A5E
:10177000F1CF81E0C81AD108E108F1088FEFC8164F
:10178000D806E806F80669F0EF8DF8A1B082CE0120
:101790000E94270AEF8DF8A1A082CE010E94270A9D
:1017A000E8CFDF91CF911F910F91FF90EF90DF90E5
:1017B000CF90BF90AF909F908F9008958F929F92FF
:1017C000AF92BF92CF92DF92EF92FF920F931F934F
:1017D000CF93DF934C01EB016A01590137FF07C03A
:1017E000C9010196C80FD91FB194A194B108F401A1
:1017F000A085B185CA17DB070CF058C017FF07C0DA
:10180000C8010196C80ED91E119501951109F40160
:1018100082859385C816D9060CF048C0FE01EA0DF2
:10182000FB1DAF014150510957FD40C0B601600F8B
:10183000711F9B012150310937FD38C0D7FF03C00C
:101840005F01D0E0C0E0D7FE03C08B01D12CC12CDA
:101850004A175B071CF05D01AC1ABD0A281739074F
:101860001CF08C010C191D09D401ED91FC9102842E
:10187000F385E02DC40109959501A601BE01C401BF
:101880000E94200BD401ED91FC910688F789E02D90
:10189000C401DF91CF911F910F91FF90EF90DF90E6
:1018A000CF90BF90AF909F908F900994DF91CF9190
:1018B0001F910F91FF90EF90DF90CF90BF90AF906E
:1018C0009F908F900895EF92FF920F931F93211591
:1018D000310529F00115110511F00E94DE0B1F9151
:1018E0000F91FF90EF9008958F929F92AF92BF92C9
:1018F000CF92DF92EF92FF920F931F93CF93DF93DC
:101900005C014B016A01E90177FD52C0DC011896C8
:101910008D919C91681779070CF04AC0209709F4C3
:1019200047C037FF07C0C9010196C80ED91ED1951F
:10193000C195D109F50182859385C816D906C4F5EC
:10194000A6014C0F5D1F9A012150310937FD30C0AF
:10195000D7FE03C0EA01D12CC12C281739071CF08F
:10196000EC01CC19DD09D501ED91FC910284F385E0
:10197000E02DC501099578018E0121E030E0A60136
:10198000B401C5010E94200BD501ED91FC910688A0
:10199000F789E02DC501DF91CF911F910F91FF9045
:1019A000EF90DF90CF90BF90AF909F908F90099471
:1019B000DF91CF911F910F91FF90EF90DF90CF902B
:1019C000BF90AF909F908F9008958F929F92AF920B
:1019D000BF92CF92DF92EF92FF920F931F93CF931C
:1019E000DF935C016B014A01E90157FD52C0DC0144
:1019F0001A968D919C91481759070CF04AC0209770
:101A000009F447C037FF07C0C9010196C80ED91EA7
:101A1000D195C195D109F50180859185C816D90662
:101A2000C4F5A6014C0F5D1F9A012150310937FD05
:101A300030C0D7FE03C0EA01D12CC12C28173907CA
:101A40001CF0EC01CC19DD09D501ED91FC9102846B
:101A5000F385E02DC5010995780101E010E09E01B4
:101A6000A401B601C5010E94200BD501ED91FC91A6
:101A70000688F789E02DC501DF91CF911F910F9165
:101A8000FF90EF90DF90CF90BF90AF909F908F909E
:101A90000994DF91CF911F910F91FF90EF90DF900C
:101AA000CF90BF90AF909F908F900895EF92FF924C
:101AB0000F931F93CF93DF9377FD32C0DC0118960D
:101AC000ED91FC916E177F075CF52115310541F111
:101AD00037FF07C0F90131964E0F5F1F31952195F1
:101AE0003109DC011A96ED91FC914E175F07C4F4A1
:101AF000EA01C20FD31FDE011197B7FD11C057FFD6
:101B000003C09E0150E040E0AE17BF071CF09F01EC
:101B1000241B350B7801890121E030E00E94200B65
:101B2000DF91CF911F910F91FF90EF900895EF9269
:101B3000FF920F931F93CF93DF9357FD31C0DC01CA
:101B40001A96ED91FC914E175F0754F5211531055A
:101B500039F137FF07C0F90131966E0F7F1F3195BC
:101B600021953109DC011896ED91FC916E177F07E4
:101B7000BCF4EB01C20FD31FDE011197B7FD10C0FB
:101B800077FF03C09E0170E060E0AE17BF071CF056
:101B90009F01261B370B780101E010E00E94200B0B
:101BA000DF91CF911F910F91FF90EF9008958F9249
:101BB0009F92AF92BF92CF92DF92EF92FF920F93DC
:101BC0001F93CF93DF9347012115310509F44BC0D3
:101BD0000115110509F447C037FF07C0F901319617
:101BE0006E0F7F1F319521953109DC011896AD905C
:101BF000BC906A157B05BCF517FF07C0F80131964C
:101C00004E0F5F1F119501951109DC011A96ED9198
:101C1000FC914E175F073CF56B01C20ED31EE60127
:101C20002197D7FD20C07A01E00EF11ED701119750
:101C3000B7FD19C077FF03C0960170E060E057FF61
:101C400003C0870150E040E0CA15DB051CF0950198
:101C5000261B370BAE17BF071CF08F01041B150B9B
:101C600074010E94200BDF91CF911F910F91FF9083
:101C7000EF90DF90CF90BF90AF909F908F9008959E
:101C8000EF92FF920F931F93CF93DF93EC0177FDB9
:101C900022C08885998568177907ECF457FD1BC029
:101CA0008A859B8548175907B4F47901E881F98141
:101CB00002A4F3A5E02D01E010E021E030E0CE0128
:101CC0000995B701CE01DF91CF911F910F91FF9040
:101CD000EF900C94350ADF91CF911F910F91FF90F7
:101CE000EF900895FC0187A987FD06C0A38DB48DF0
:101CF0009C9181A9892B8C9308958CBD9DBD0895DD
:101D00001F93CF93DF93EC01162F8DA9811104C08F
:101D100089A19AA10E947D0E8FA987FD06C0EB8D37
:101D2000FC8D80819AA989238083ED8DFE8D808131
:101D30009CA989238083612FCE010E947A0AED8DB0
:101D4000FE8D80819BA9892B80838FA987FD06C08A
:101D5000EB8DFC8D808199A9892B8083DF91CF91B8
:101D60001F910895EF92FF920F931F93CF93DF93EC
:101D70007C01162F603608F01FE5D42F403408F0A0
:101D8000DFE321500150040FC22FC60FC03608F008
:101D9000CFE5003408F00FE3C11718F4812F1C2F92
:101DA000C82F0D1718F48D2FD02F082F65E1C7010C
:101DB0000E94800E612FC7010E94800E6C2FC70108
:101DC0000E94800E65E7C7010E94800E6D2FC7013B
:101DD0000E94800E602FC7010E94800ED701ED91F6
:101DE000FC910284F385E02DC701DF91CF911F9113
:101DF0000F91FF90EF900994CF93DF93EC018DA9A1
:101E0000811104C089A19AA10E947D0E8FA987FD2E
:101E100006C0EB8DFC8D80819AA989238083DF9198
:101E2000CF9108950895FC016370668B848195813C
:101E300026813781613039F0633029F091878087BE
:101E40003387228708953187208793878287089573
:101E50002F923F924F925F926F927F928F929F92BA
:101E6000AF92BF92CF92DF92EF92FF920F931F93A8
:101E7000CF93DF93CDB7DEB76A970FB6F894DEBF86
:101E80000FBECDBF9A8F898F7A8369834A01D22E84
:101E900018870F833701BC2CDC0159962D913C919A
:101EA0005A972115310509F015C118968D919C910D
:101EB0001997681779070CF0D7C11A968D919C91E4
:101EC000481759070CF0D0C14C2C512CB6E0CB9ED2
:101ED000600D711D11247C876B87161617060CF098
:101EE000C3C1EA2DF0E0FA87E98793E0EE0FFF1F08
:101EF0009A95E1F7F88BEF87CF01840F951F18169D
:101F000019060CF0B1C1A98DBA8D58968C9181112A
:101F100004C0BFEABD1508F4D394A98DBA8DED9124
:101F2000FC9111970284F385E02DCD010995B5E070
:101F3000DB9EC0011124E981FA81FC83EB83312C03
:101F4000212C9C012459364F388F2F8B4A2D50E07D
:101F50005E8B4D8BEF89F88DE20DF31D44919E82CF
:101F60008D82D12CC12C69817A81620D731D7A8B8F
:101F7000698B842F90E09C8B8B8BE98DFA8DA081EF
:101F8000B18140FF82C0F1E0BF126FC0AF126DC0DF
:101F90001C96ED91FC912F813885A4014C0D5D1D9F
:101FA00069897A89898D9A8D0995EB89FC89F595DE
:101FB000E7954E2F5FEFC51AD50A6D817E818D8919
:101FC0009E89680F791F7E836D8398E0C916D104BE
:101FD00081F6AFEF2A1A3A0AEB81FC81E40DF51D78
:101FE000FC83EB83F5E02F16310409F0B3CF2F818A
:101FF000388526153705B9F0A98DBA8DED91FC917C
:10200000B1E0BB1257C0AB1255C069817A816B5FDA
:102010007F4F0088F189E02D830128E030E0A401A2
:10202000898D9A8D0995A98DBA8DED91FC911197A5
:102030000688F789E02DCD016A960FB6F894DEBFC9
:102040000FBECDBFDF91CF911F910F91FF90EF9009
:10205000DF90CF90BF90AF909F908F907F906F90C8
:102060005F904F903F902F9009941E96ED91FC91B8
:10207000EF80F88409851A8592014D815E816B811C
:102080007C81898D9A8D099590CF2F813885261571
:10209000370509F48ACF31E0B31207C0A31205C097
:1020A0001C96ED91FC91930178CF1E96ED91FC91D9
:1020B0007301E0CF6B857C85641975090684F7850B
:1020C000E02D73010F8518899201A401898D9A8DE5
:1020D0000995A9CFF901349694913297459154917D
:1020E000D91AB7E0DB9E400D511D1124F90125914D
:1020F00034913C8B2B8BFA0125903490FA01329667
:10210000749031963491398B329664903196449024
:1021100041E04C1518F04A1508F07FC0662D062CDA
:10212000000C770B7C836B83842D042C000C990BA3
:102130009E838D83A98DBA8DED91FC9111970284B8
:10214000F385E02DCD010995512CD12CC12CEA2D20
:10215000F0E0FA87E9872B2D30E03C872B87A4013C
:10216000440D511D47FC5A95588F4F8B69817A81D8
:10217000660D711D67FC7A957E876D877989C71614
:1021800008F051CF2C2D30E04D815E81420F531F5E
:10219000A985BA854A9FC0014B9F900D5A9F900D0B
:1021A0001124FC01E80DF91DF88BEF87852D612CBA
:1021B0004F89588D420F531F5E8B4D8B671408F06B
:1021C00050C044244394480E877041F4C1010196E5
:1021D000EB89FC89E20DF31DD4901C01D7FE19C0D8
:1021E000A98DBA8DED91FC91662D70E0B1E0BB1226
:1021F00019C0AB1217C02D853E85620F731F048472
:10220000F585E02D2F8138854D895E89898D9A8DE0
:102210000995DD0C6394842DD1CF1E821D821C8212
:102220001B8288CF4B815C81640F751FAB85BC8599
:102230006A9FC0016B9F900D7A9F900D1124698158
:102240007A81680F791F0684F785E02DEF80F88486
:1022500009851A859D014F855889898D9A8D099523
:10226000D8CF570CC3948ACF6A960FB6F894DEBFC6
:102270000FBECDBFDF91CF911F910F91FF90EF90D7
:10228000DF90CF90BF90AF909F908F907F906F9096
:102290005F904F903F902F9008958F929F92AF92B2
:1022A000CF92EF92FF920F931F93CF93DF93EC01A6
:1022B000262F898D9A8D009709F051C06A30D1F48C
:1022C0001D861C868D8948E0849F900111248E858F
:1022D0009F85820F931F9F878E8781E090E0DF911B
:1022E000CF911F910F91FF90EF90CF90AF909F9063
:1022F0008F9008956D3089F3CC88AD888F898823BD
:10230000C1F08C859D8536E0C39E800D911D112402
:10231000488559854817590764F44E855F851D86A1
:102320001C8638E0A39EC0011124840F951F9F874F
:102330008E87EA88FB88088919894E855F856C85B8
:102340007D85CE010E94280F2C898C859D8546E0D5
:10235000249F800D911D11249D878C87BECF6A30EC
:1023600069F41D861C86FC013896E4912D898E85C2
:102370009F85E29F800D911D1124ADCF6D3009F432
:10238000ACCFFC0134963491631708F4A6CF329693
:10239000E491E61708F4A1CFFC0132968590949061
:1023A000462F431B342F47E0349F800C911C11248F
:1023B000F401329634913196E4913323A9F1EE235E
:1023C00099F1CC88F4013596E491AD884F89442386
:1023D00001F10E2E000CFF0BE30FF11DCE9EA001AC
:1023E000CF9E500D11246C857D85460F571F688543
:1023F0007985641775076CF44E855F851D861C868C
:10240000FC013896E491AE9E400D511D11245F876A
:102410004E87EA88FB88088919894E855F856C8517
:102420007D85CE010E94280FF4013496E4912C8919
:102430008C859D85E29F800D911D11248DCF6F921B
:102440007F928F929F92AF92BF92CF92DF92EF9244
:10245000FF920F931F93CF93DF93EC016B015A010F
:1024600039014801E881F9810284F385E02D09955D
:10247000E881F9810288F389E02D87019301A501A4
:10248000B601CE010995A501480D591D41505109CC
:10249000E881F9810288F389E02D9301B601CE012C
:1024A0000995E881F9810088F189E02D9401A50161
:1024B000B601CE010995C60CD71CB6016150710951
:1024C000E881F9810088F189E02D9401A501CE0110
:1024D0000995E881F9810688F789E02DCE01DF9121
:1024E000CF911F910F91FF90EF90DF90CF90BF9011
:1024F000AF909F908F907F906F9009946F927F9292
:102500008F929F92AF92BF92CF92DF92EF92FF9203
:102510000F931F93CF93DF935C01EB016A01490195
:1025200038018701DC01ED91FC916217730719F501
:10253000641675062CF0962D872D3A01C92ED82EDB
:102540009601261937092F5F3F4F048CF58DE02D3A
:10255000A301BE01C5010995DF91CF911F910F9194
:10256000FF90EF90DF90CF90BF90AF909F908F90B3
:102570007F906F9008954615570591F426173707F9
:1025800024F0892D4B01C22FD82F9E01281939091B
:102590002F5F3F4F068CF78DE02DA601B401DACFF7
:1025A0000284F385E02D0995D501ED91FC91048815
:1025B000F589E02D83019401A601BE01C5010995AD
:1025C000D501ED91FC910688F789E02DC501DF91D9
:1025D000CF911F910F91FF90EF90DF90CF90BF9020
:1025E000AF909F908F907F906F900994EF92FF92A1
:1025F0000F931F93DC011A960D911C911B9718964F
:102600002D913C911997ED91FC9100A0F1A1E02D45
:102610007B0150E040E070E060E009951F910F9170
:10262000FF90EF9008954F925F926F927F928F92FA
:102630009F92AF92BF92CF92DF92EF92FF920F9351
:102640001F93CF93DF936C012B015A01390148018D
:10265000DC01ED91FC910284F385E02D0995E20106
:10266000640C751CD601ED91FC91C615D7055CF480
:102670000088F189E02D87019401A501BE01C60102
:1026800009952196EFCF0688F789E02DC601DF91E5
:10269000CF911F910F91FF90EF90DF90CF90BF905F
:1026A000AF909F908F907F906F905F904F90099424
:1026B0008F929F92AF92BF92CF92DF92EF92FF9252
:1026C0000F931F93CF93DF93EC015B014A016901E4
:1026D000E881F9810284F385E02D099595012C0D9F
:1026E0003D1D21503109E881F9810488F589E02DEB
:1026F00078018401A401B501CE010995E881F98131
:102700000688F789E02DCE01DF91CF911F910F91BF
:10271000FF90EF90DF90CF90BF90AF909F908F9001
:1027200009948F929F92AF92BF92CF92DF92EF92D5
:10273000FF920F931F93CF93DF93EC015B014A014C
:1027400069017801E881F9810284F385E02D09951A
:10275000C80CD91C860101501109E881F98104884F
:10276000F589E02D9501A401B501CE010995E88117
:10277000F9810688F789E02DCE01DF91CF911F9175
:102780000F91FF90EF90DF90CF90BF90AF909F9010
:102790008F900994EF92FF920F931F93DC01ED91BC
:1027A000FC9100A0F1A1E02D09951F910F91FF90E0
:1027B000EF9008950F931F93DC01ED91FC91068C2F
:1027C000F78DE02D09951F910F9108950F931F9399
:1027D000DC01ED91FC91048CF58DE02D09951F91A4
:1027E0000F910895DC01ED91FC910084F185E02DBD
:1027F00009942F923F924F925F926F927F928F92A5
:102800009F92AF92BF92CF92DF92EF92FF920F937F
:102810001F93CF93DF9300D000D000D0CDB7DEB7A9
:102820003C016A013E832D83FC82EB825801A41A8D
:10283000B50AB7FE03C0B194A194B1088D809E8003
:10284000861A970A97FE03C09194819491088A147E
:102850009B045CF0902F812F0D811E819D838E83C0
:102860009C2D8D2D6B01692F782F0C151D055CF0AB
:102870009D818E817E836D83692F782F902F812F8C
:102880008601C92ED82E1601201A310A2B012D815E
:102890003E81421A530A57FE03C051944194510895
:1028A000710137FE03C03FEFE31AF30AF594E79492
:1028B0008D819E81861797075CF5A1E0B0E0BA8311
:1028C000A983C016D1064CF1D301ED91FC9104848B
:1028D000F585E02D2B813C81A8016D817E818A14D4
:1028E0009B041CF04D815E81B801C3010995E41879
:1028F000F508F7FE0AC02D813E8189819A81280F53
:10290000391F3E832D83E20CF31C0F5F1F4FD9CF7D
:102910002FEF3FEF3A832983D4CF26960FB6F89452
:10292000DEBF0FBECDBFDF91CF911F910F91FF9002
:10293000EF90DF90CF90BF90AF909F908F907F905F
:102940006F905F904F903F902F900895089590E082
:1029500080E008950E943125FB0101900020E9F7F5
:102960003197AF01461B570BDC01ED91FC910280C2
:10297000F381E02D09948F929F92AF92BF92EF92D4
:10298000FF920F931F93CF93DF93CDB7DEB7A1973D
:102990000FB6F894DEBF0FBECDBF7C01FA01CB01AC
:1029A00019A2223008F42AE08E010F5D1F4F822EFB
:1029B000912CB12CA12CBF01A50194010E941823D8
:1029C000F901CA016A300CF5605DD8016E938D0182
:1029D000232B242B252B79F790E080E0109721F012
:1029E000BD01C7010E94AC14A1960FB6F894DEBFDA
:1029F0000FBECDBFDF91CF911F910F91FF90EF9050
:102A0000BF90AF909F908F900895695CDECFCF9379
:102A1000DF93BC018DE592E00E94AC14EC0160E50F
:102A200071E08DE592E00E94AC148C0F9D1FDF9148
:102A3000CF910895FC0180819181009711F00C9451
:102A4000EB230895CF93DF93EC01188289859A8553
:102A50000E94EB238B859C850E94EB238D859E85B0
:102A60000E94EB238F8598890E94EB230988DA89DD
:102A7000C02D209741F0CE010E941A15CE01DF91A2
:102A8000CF910C94EB23DF91CF910895EF92FF92B9
:102A90000F931F93CF93DF93EC017B018A01888111
:102AA0009981009729F02A813B812417350788F402
:102AB000B8016F5F7F4F0E947424009791F0998353
:102AC00088831B830A832C813D81232B11F4FC0115
:102AD00010821D830C83B701888199810E943F2554
:102AE0000CC088819981009711F00E94EB23198214
:102AF00018821D821C821B821A82CE01DF91CF9127
:102B00001F910F91FF90EF900895FB01019000201D
:102B1000E9F73197AF01461B570B0C9446151F93ED
:102B2000CF93DF9385ED8093BC008091E601909177
:102B3000E701A091E801B091E9010796A11DB11D3F
:102B400023E0B695A795979587952A95D1F720917B
:102B5000BC0024FD03C010922E0252C04091E60139
:102B60005091E7016091E8017091E901452B462BF6
:102B7000472B69F30097A105B10541F025E32A959C
:102B8000F1F700000197A109B109E1CF8091E501BA
:102B9000C1E0C093E401882399F1D091B80010916D
:102BA000BA008091BC008A7B8093BC0060E082E127
:102BB0000E94D90860E083E10E94D90810922E0299
:102BC000C093300210922F0261E082E10E94D90886
:102BD00061E083E10E94D9088091B9008E7F8093E3
:102BE000B9008091B9008D7F8093B90088E480930B
:102BF000B80085E48093BC001093BA00D093B8006D
:102C0000DF91CF911F910895CF92DF92EF92FF92C3
:102C10000F931F93CF93DF93EC016A017B01C114E3
:102C2000D104E104F10431F4C12C22E1D22E2AE7CF
:102C3000E22EF12C8FA987FD07C061E00E940709F1
:102C400061E08FA90E94D90861E088AD0E94070960
:102C500061E088AD0E94D9088DA98111E7C040E0EC
:102C600052E16AE770E0C416D506E606F70640F4BE
:102C700076956795579547958F5F8630A1F787E0E2
:102C8000982F906A969599A3809581708AA31BA22C
:102C90001CA21DA21EA20E94EB098EA987FD21C0C5
:102CA00061E00E94070961E08EA90E94D90864E6EC
:102CB00070E080E090E00E94680960E08EA90E94C8
:102CC000D90864E670E080E090E00E94680961E065
:102CD0008EA90E94D90868EC70E080E090E00E9424
:102CE00068096EEACE010E94800E60EACE010E9461
:102CF000800E62E7CE010E94800E61EACE010E9442
:102D0000800E60E0CE010E94800E62EACE010E9439
:102D1000800E60E0CE010E94800E64EACE010E9427
:102D2000800E68EACE010E94800E6FE3CE010E9401
:102D3000800E6DEACE010E94800E6EE8CE010E94E8
:102D4000800E60EBCE010E94800E6BE0CE010E94EF
:102D5000800E61EBCE010E94800E61E3CE010E94E5
:102D6000800E63EBCE010E94800E60EFCE010E94C8
:102D7000800E6AE8CE010E94800E64E6CE010E94B9
:102D8000800E6BE8CE010E94800E68E7CE010E94A3
:102D9000800E6CE8CE010E94800E64E6CE010E9497
:102DA000800E6BEBCE010E94800E6AE3CE010E9482
:102DB000800E6EEBCE010E94800E6EE3CE010E946B
:102DC000800E67E8CE010E94800E66E0CE010E9470
:102DD000800E61E8CE010E94800E61E9CE010E9462
:102DE000800E62E8CE010E94800E60E5CE010E9456
:102DF000800E63E8CE010E94800E6DE7CE010E9436
:102E0000800E6FEACE010E94800E80E690E09987E6
:102E1000888780E490E09B878A87DF91CF911F911C
:102E20000F91FF90EF90DF90CF9008950AE81EE099
:102E3000F12C8130B9F461E08AA50E94070960E0B5
:102E40008AA50E94D90861E08CA50E94070960E06C
:102E50008CA50E94D9088BA587FD1FCF60E00E943A
:102E600007091BCFF8018491E82FF0E0EE0FFF1F58
:102E7000EA58F14F859194912F8D38A12817390781
:102E800041F461E08F2D0E94070960E08F2D0E94C0
:102E9000D908F3940F5F1F4FF4E1FF12E3CF61E015
:102EA0008EA50E94070961E08EA50E94D9088FA512
:102EB00087FDF3CE61E00E94070961E08FA50E94C3
:102EC000D908EBCE1F920F920FB60F9211242F93B9
:102ED0003F934F935F936F937F938F939F93AF93A2
:102EE000BF93EF93FF938DE592E00E94F807FF9167
:102EF000EF91BF91AF919F918F917F916F915F9172
:102F00004F913F912F910F900FBE0F901F901895EA
:102F10001F920F920FB60F9211242F938F939F93AE
:102F2000EF93FF93E0916D02F0916E028081E0914A
:102F30007302F091740282FD1BC090818091760231
:102F40008F5F8F7320917702821741F0E0917602B4
:102F5000F0E0E35AFD4F958F80937602FF91EF9159
:102F60009F918F912F910F900FBE0F901F901895EA
:102F70008081F4CF1F920F920FB60F9211242F93DE
:102F80003F938F939F93AF93BF93809155029091FE
:102F90005602A0915702B09158023091540223E09A
:102FA000230F2D3758F50196A11DB11D2093540212
:102FB0008093550290935602A0935702B093580203
:102FC0008091590290915A02A0915B02B0915C02EB
:102FD0000196A11DB11D8093590290935A02A093AE
:102FE0005B02B0935C02BF91AF919F918F913F9133
:102FF0002F910F900FBE0F901F90189526E8230F6A
:103000000296A11DB11DD2CF1F920F920FB60F9243
:1030100011242F933F934F935F936F937F938F93DD
:103020009F93AF93BF93EF93FF938091B900887FF5
:10303000803609F44AC0F0F5883209F4A5C018F5C5
:10304000803109F499C0B8F4882309F4F5C08830B8
:1030500009F492C0FF91EF91BF91AF919F918F9131
:103060007F916F915F914F913F912F910F900FBE84
:103070000F901F901895883109F486C0803251F75F
:1030800080932D0214C0803409F49BC040F4803337
:10309000B9F38833F9F680932D0285ECAEC0803504
:1030A00009F483C0883509F494C0883499F60E94E5
:1030B0008F15D0CF883909F48AC038F5883729F0C0
:1030C00050F4883611F0803729F683E080932E0281
:1030D00010922C0255C0883809F479C0803919F053
:1030E000803809F0B7CF80912C02803208F06FC091
:1030F000E0912C0281E08E0F80932C028091BB0026
:10310000F0E0E45FFD4F80833BC0803B39F0D0F4BA
:10311000803A09F477C0883A09F09CCF84E0809324
:103120002E0210920B0210920A02F0E0E0E00995E4
:1031300080910A0281110FC081E080930A021092EF
:10314000EA0109C0803C09F4A8CF883C09F4A5CF66
:10315000883B09F07FCFE0910B0281E08E0F8093D6
:103160000B02F0E0E651FE4F80818093BB0090910E
:103170000B0280910A0229C0809153028093BB0008
:1031800085EC8093BC0066CF9091520280915102F1
:10319000981758F5E091520281E08E0F8093520209
:1031A000F0E0EF5CFD4F8081E9CFE091520281E0D9
:1031B0008E0F809352028091BB00F0E0EF5CFD4FD8
:1031C000808390915202809151029817C8F285E84D
:1031D000D8CFE091520281E08E0F8093520280910D
:1031E000BB00F0E0EF5CFD4F8083809130028111E5
:1031F0005ECF81E080932F0284EA8093BC0010921E
:103200002E0228CF85EC8093BC0010922E02809174
:103210002C02803230F4E0912C02F0E0E45FFD4FAC
:10322000108260912C0270E08CE092E0F0E0E0E02F
:10323000099510922C020ECF10922D0238CFEDE599
:10324000F2E01382128288EE93E0A0E0B0E0848383
:103250009583A683B78382E491E09183808385EC94
:1032600090E09587848784EC90E09787868780EC50
:1032700090E0918B808B81EC90E0938B828B82EC41
:1032800090E0958B848B86EC90E0978B868B118EEB
:10329000128E138E148E0895CF93DF93CDB7DEB7C1
:1032A000A4970FB6F894DEBF0FBECDBF789484B557
:1032B000826084BD84B5816084BD85B5826085BD32
:1032C00085B5816085BD80916E00816080936E00C0
:1032D00010928100809181008260809381008091B2
:1032E0008100816080938100809180008160809363
:1032F00080008091B10084608093B1008091B00023
:1033000081608093B00080917A00846080937A001D
:1033100080917A00826080937A0080917A00816047
:1033200080937A0080917A00806880937A0010926E
:10333000C100E0916D02F0916E0282E08083E09125
:103340006902F0916A021082E0916B02F0916C02C6
:103350008FEC808310927502E0917102F0917202FD
:1033600086E08083E0916F02F0917002808180613D
:103370008083E0916F02F091700280818860808389
:10338000E0916F02F0917002808180688083E0910B
:103390006F02F091700280818F7D808361E08DE00B
:1033A0000E94D9086CE271E080E090E00E94680918
:1033B00060E08DE00E94D90864E670E080E090E073
:1033C0000E94680961E08DE00E94D9086CE271E01A
:1033D00080E090E00E94680960E08DE00E94D908DA
:1033E00064E670E080E090E00E94680961E08DE0B2
:1033F0000E94D9086CE271E080E090E00E946809C8
:1034000060E08DE00E94D90864E670E080E090E022
:103410000E9468098DE491E00E944F232C0181E015
:10342000D2018C9312961C921E92119714961C92A4
:103430001E92139716961C921E92159718961C9220
:103440001E9217971A961C921E9219971C961C9200
:103450001E921B975201B5EDAB0EB11CF501118206
:1034600010824201F7ED8F0E911CD4011D921C9227
:103470001201B9ED2B0E311CF1011382128260E6AC
:10348000C62ED12CD582C482D782C682D186C08670
:10349000D386C286168A1586148617861686858B6D
:1034A000848BEE24EA94FE2CF38AE28AF18AE08A85
:1034B000878B108E128E118E15AA88E086AB8AE05B
:1034C00087AB89E080AF12AE11AE14AE13AE15AE6D
:1034D00016AEFF961082118212821382E0EEF1E0A6
:1034E000D1019096FC93EE935F97E3E9FEE084911F
:1034F000E82FF0E0EE0FFF1FEA58F14F859194910D
:103500005E969C938E935D97E7EAFEE08491D39656
:103510008C93D397E4E9FEE0E491F0E0EE0FFF1F17
:10352000EA58F14F25913491F101348F238FE8EA65
:10353000FEE0E491D196EC93D197E095D296EC938E
:10354000D2978095D4968C93D4978AE091E08D930E
:103550009C93F201E45EFE4F80E48083319680E626
:103560008083319680E18083B39688E790E09183F1
:1035700080833496C12CD12C80E8E82E81E4F82E8B
:10358000C082D182E282F382C482D582E682F7824F
:1035900083E591E00E9407150E94EB0962E084E058
:1035A0000E94070962E083E00E94070962E082E06E
:1035B0000E94070940E052E16AE770E0C1010E9401
:1035C000041670E060E0C1010E94F61286E090E00F
:1035D000D1011D969C938E931C978DE090E01F96D1
:1035E0009C938E931E9780E098EF53969C938E93B6
:1035F000529751969C938E93509782E054968C9359
:10360000549755968C9362E671E0C1010E94AC1408
:10361000C1010E94FC0ED12CC12C712C99E1E92E24
:10362000F12C10E000E0C80187709927770C892BF6
:1036300059F4F80153E0F595E7955A95E1F7EC0D4B
:10364000FD1DE859F74F749077FE09C020E038EF70
:10365000A701B801665F7F4FC1010E94400E0F5F56
:103660001F4F0B341105F9F6BFEFEB1AFB0AEAE026
:10367000CE0ED11CF3E3EF16F10499F6C1010E94BE
:10368000720E60ED77E080E090E00E94680970E0E3
:1036900060E0C1010E94F612D20112961C921E92A5
:1036A000119714961C921E92139716961C921E92B6
:1036B000159718961C921E9217971A961C921E9296
:1036C00019971C961C921E921B97F501118210826D
:1036D0008AE691E00E940715D4018D919C91009794
:1036E00011F00E9422151A8219821C821B821E82EE
:1036F0001D8246E050E061E871E0CE0101960E9433
:10370000461568E871E08DE592E00E94AC144D81A9
:103710005E8169817A818DE592E00E948E076BE976
:1037200071E08DE592E00E94AC14F5014081518179
:1037300070E060E02AE08DE592E00E94BB1460E555
:1037400071E08DE592E00E94AC1483E190E00E946C
:103750004F238C01D5018D919C9121E0F8012083AC
:1037600092838183148213821682158210861782B7
:1037700069817A816115710531F04D815E81C801E1
:1037800003960E944615D8011A961C921E9219970C
:103790001C961C921E921B971E961C921E921D97A1
:1037A00050961C921E921F9752961C921E925197F1
:1037B000F50180819181019691838083D2011796D2
:1037C0002D913C91189721153105C9F01B968D91CB
:1037D0009C911C9719964D915C911A9784179507A7
:1037E00070F4AC014F5F5F4F1C965C934E931B9738
:1037F000880F991F820F931FFC01118300836CEACD
:1038000071E08DE592E00E94AC14D5014D915C9180
:1038100070E060E02AE08DE592E00E94BB1460E574
:1038200071E08DE592E00E94AC14F40111830083F5
:10383000CE0101960E941A1588E190E00E944F2364
:10384000FC01C12CD12C10E4E12E12E4F12EC08237
:10385000D182E282F382E12CF12C00E012E4E482D6
:10386000F5820683178310861186128613861486C6
:10387000158616861786108A118A128A138A148A68
:10388000158A168A178AD4010D911C91D8011A96AF
:10389000FC93EE93199780E190E00E944F23FC0186
:1038A000C12CD12C90E8E92E9FE3F92EC082D18261
:1038B000E282F382C482D582E682F78220E030E0A1
:1038C00040E05FE32087318742875387248735872D
:1038D00046875787D8011C96FC93EE931B9785E08B
:1038E00090E00E944F23FC01C082D182E282F382E9
:1038F0001482D80150969C938E931F9783E090E09A
:103900000E944F23FC01108211821282D8011E9660
:103910009C938E931D9786E090E00E944F238C012C
:10392000FC0111821082138212821582148243E0FC
:1039300050E066EC71E00E944615D401ED91FC91D7
:10394000128B018B2FB7F8948091550290915602FB
:10395000A0915702B09158022FBF8201015E1E4F05
:10396000F80180839183A283B3838AEC91E00E9463
:10397000071592012D5D3E4F3E8B2D8BA2014B52C0
:103980005F4F5AA349A31C8F0B8FC201825E9E4FCB
:103990009CA38BA3D201A952BF4FB88FAF8BF2016A
:1039A000E35CFE4FFA8FE98FD2018C91882309F4F2
:1039B000F5CC2FB7F8948091550290915602A091C2
:1039C0005702B09158022FBFED89FE898083918301
:1039D000A283B383D20117964D915C9118971B96E1
:1039E0006D917C9190E080E0F2010581168168176D
:1039F000790701F12181328121153105C9F0038058
:103A0000F481E02D0E171F0798F4FC01EE0FFF1F45
:103A1000E40FF51FE080F180D8011196F201B68322
:103A2000A583000F111F020F131FD801ED92FC9206
:103A30000196DACF148613867801EE0CFF1CD201B2
:103A400015968D919C91169717FF36C09801119687
:103A5000ED91FC91EE0DFF1DA081B1814C914111C2
:103A600025C00817190798F4DF01019728173907AF
:103A700048F42F5F3F4F12964D915C9113974D93F1
:103A80005D93F4CFD20116969C938E931597C080C8
:103A9000D180C114D10451F0C6010E942215C60183
:103AA00003960E941A15C6010E94EB2301501109CA
:103AB000B2E0EB1AF108C3CFE9A1FAA191838083A8
:103AC000AD89BE894D915D916D917C91EB8DFC8DA1
:103AD00080819181A281B381481B590B6A0B7B0BBA
:103AE000ABA1BCA18C9190E0B0E0A0E048175907D1
:103AF0006A077B0708F458CFEF89F88D00811181A0
:103B000084E00E94B008D8011D96ED91FC9121E05F
:103B1000019709F020E0218383E00E94B008D801DA
:103B20001D96ED91FC9121E0019709F020E02283A0
:103B300082E00E94B008D8011D96ED91FC9121E031
:103B4000019709F020E02083EF89F88D6080718073
:103B5000D30119960D911C911A97F80184889588C4
:103B6000A688B7881D96CD90DC90D886CF82D601E6
:103B700011968C91C12CD12C7601882329F0C12C6F
:103B8000D12CE12C40ECF42EEF81F8858281882342
:103B900051F020E030E040E050E4C701B6010E945F
:103BA00071226B017C01D3011F960D90BC91A02D59
:103BB000BC87AB87EF81F8858081882309F486C3B1
:103BC00014968C91882331F0812C912C30EEA32E09
:103BD00030ECB32ED8015096CD92DD92ED92FC924E
:103BE0005397EB85FC852081318142815381C5014A
:103BF000B4010E9471224B015C01D80154968D9250
:103C00009D92AD92BC92579788E0F801189601906A
:103C10000D928A95E1F7A7019601F8016081718103
:103C2000828193810E947122D8016D937D938D933F
:103C30009C931397A501940114966D917D918D919C
:103C40009C9117970E947122F80164837583868383
:103C5000978366EC71E0D30151968D919C910E94FF
:103C60008515D3011F96ED91FC91509714821996FA
:103C7000ED91FC9120E030E0A901608171818281A9
:103C800093810E94732187FF13C068ED71E0F301F7
:103C9000818992890E948515D3011996ED91FC9135
:103CA0001082118212821382108A118A128A138A58
:103CB000F301018512857201F3EEEF1AFEEFFF0AA0
:103CC000D7016C916051770B072E000C880B990B74
:103CD0000E947A219B01AC01F8016081718182818F
:103CE00093810E9413231816F4F468ED71E0D30158
:103CF00051968D919C910E948515F3010185128545
:103D0000D7016C916051770B072E000C880B990B33
:103D10000E947A21F8016083718382839383108AE1
:103D2000118A128A138AF301018512857201F4EE59
:103D3000EF1AFEEFFF0AD7016C916051770B072E47
:103D4000000C880B990B0E947A219B01AC01F801B1
:103D500064817581868197810E941323181624F54A
:103D600068ED71E0D30151968D919C910E9485156B
:103D7000F30101851285D7016C916051770B072EF5
:103D8000000C880B990B0E947A21F80164837583DB
:103D900086839783148A158A168A178AD3011F96F9
:103DA000ED91FC9181E08483E98DFA8D8081918190
:103DB000A281B3810196A11DB11D80839183A2834D
:103DC000B3838FB7F8944091550250915602609199
:103DD0005702709158028FBFF201E75CFE4F40839B
:103DE000518362837383D201AB5CBE4F0D911D91F1
:103DF0002D913C9113976A017B01C01AD10AE20A06
:103E0000F30A970186013896C080D180F12CE12C0D
:103E10000C151D052E053F05A8F032968081918175
:103E200001968430910508F042C191838083E98D29
:103E3000FA8D10821182128213824D935D936D93DD
:103E40007C931397AF89B88D6D907C90D3011996B0
:103E5000ED91FC91C080D180E280F38000851185D6
:103E6000228533850B871C872D873E878484958424
:103E7000A684B78424813581468157812F83388772
:103E800049875A872B853C854D855E85C701B601DC
:103E90000E94732181110BC0A50194016F81788567
:103EA00089859A850E947321882309F48EC12F8108
:103EB000388549855A85C501B4010E9470226F83F7
:103EC000788789879A87A70196016B857C858D8580
:103ED0009E850E9470226B017C0120E030E0A901E8
:103EE0000E947321A201475B5E4F588B4F8787FF6B
:103EF000E5C0DA016D917D918D919C910E94DD224A
:103F0000698B7A8B8B8B9C8B20E030E0A901C701F9
:103F1000B6010E94132318160CF0CCC0C701B601DD
:103F20000E94DD226B01C501B4010E94DD224B011C
:103F30006B857C858D859E850E94DD22F12CE12C90
:103F400009891A899601A401C1010E94630C6201CA
:103F5000FBEBCF1AFEEFDF0AD6016D917D918D91BB
:103F60009C910E94DD224B01F301E184F28420E068
:103F700030E0A9016F81788589859A850E94732137
:103F800020E030E0A90187FFDCC06F81788589855A
:103F90009A850E94132318160CF0CDC06F81788586
:103FA00089859A850E94DD228B01D7011C966D912F
:103FB0007D918D919C911F970E94DD226F83788760
:103FC00089879A87F70160857185828593850E942C
:103FD000DD22F12CE12C94014F815885C1010E9412
:103FE000630CAF85B8896D917D918D919C910E94F4
:103FF000DD2278876F83F6016081718182819381F0
:104000000E94DD226B017C876B87F201ED5BFE4F26
:104010000190F081E02DEE0FFF1FEA5CFE4F008162
:104020001181188B0F87D30119960D911C91F801FE
:1040300064817581868197810E94DD227A8B698BEC
:10404000D8016D917D918D919C910E94DD223B0163
:10405000C1010E94FC0E7601B12CA12CD12CC12CE7
:1040600089889A888C0C9D1C0F811885C016D106F2
:104070000CF0A8C010E000E02B853C850217130768
:104080000CF09AC0F501E00FF11FEE0FFF1F4F85F6
:104090005889E40FF51F25913491B301600F711F0A
:1040A000A401C1010E94400E0F5F1F4FE5CF118296
:1040B0001082BDCEC701B601905832CF20E030E06B
:1040C000A901C701B6010E94132318160CF03FCFB7
:1040D000EF85F88960817181828193810E94DD2260
:1040E000698B7A8B8B8B9C8BC701B6010E94DD227A
:1040F0006D8F7E8F8F8F98A3C501B4010E94DD2242
:104100004B01F201EB5BFE4F2081318142815381F3
:104110006B857C858D859E850E947122A701960105
:104120000E9470220E94DD22F12CE12C09891A895B
:104130002D8D3E8D08CF6F81788589859A85905821
:1041400031CF6F81788589859A850E94132318164F
:104150000CF047CF6F81788589859A850E94DD2292
:104160006B877C878D879E87F201E75BFE4F2081FE
:10417000318142815381D7011C966D917D918D9142
:104180009C911F970E9471222F81388549855A85FD
:104190000E9470220E94DD226F83788789879A8728
:1041A000F70160857185828593850E94DD22F12C5F
:1041B000E12C0B851C850FCF5FEFC51AD50AAE0C1D
:1041C000BF1C4ECFC1010E94720E520161EDA61AB2
:1041D0006EEFB60AF50180819181A281B3810196CB
:1041E000A11DB11D80839183A283B3832FB7F8945F
:1041F0008091550290915602A0915702B0915802B9
:104200002FBF9201255D3E4FF90180839183A283E8
:10421000B38324503109F901408151816281738156
:104220006C017D01C41AD50AE60AF70AB701A60196
:10423000483E534061057105E0F1F501408151812F
:104240006201FDECCF1AFEEFDF0AF60151834083D5
:10425000F5011082118212821382F9018083918309
:10426000A283B383F12CE12C08E010E02AE230E0D5
:1042700050E040E070E060E0C1010E94DE0BF2011E
:10428000E752FF4F1586148617861686EE24EA94A9
:10429000FE2CF38AE28AF18AE08A81E0848B858BA6
:1042A000D6014D915C9170E060E02AE0C1010E946E
:1042B000BB14ED89FE8980819181A281B381EB8D50
:1042C000FC8D80839183A283B3836ECB20E030E0AA
:1042D000A901C501B4010E94732187FF7BCC812C09
:1042E000912C540177CC0E94B52108F481E0089507
:1042F000E89409C097FB3EF4909580957095619580
:104300007F4F8F4F9F4F9923A9F0F92F96E9BB2735
:104310009395F695879577956795B795F111F8CFB1
:10432000FAF4BB0F11F460FF1BC06F5F7F4F8F4F1C
:104330009F4F16C0882311F096E911C0772321F012
:104340009EE8872F762F05C0662371F096E8862FAA
:1043500070E060E02AF09A95660F771F881FDAF701
:10436000880F9695879597F90895990F0008550F2E
:10437000AA0BE0E8FEEF16161706E807F907C0F0EB
:1043800012161306E407F50798F0621B730B840BF3
:10439000950B39F40A2661F0232B242B252B21F4CD
:1043A00008950A2609F4A140A6958FEF811D811D6D
:1043B000089597F99F6780E870E060E008959FEFA7
:1043C00080EC089500240A941616170618060906AC
:1043D000089500240A94121613061406050608957B
:1043E000092E0394000C11F4882352F0BB0F40F403
:1043F000BF2B11F460FF04C06F5F7F4F8F4F9F4F43
:10440000089557FD9058440F551F59F05F3F71F0C4
:104410004795880F97FB991F61F09F3F79F087952B
:104420000895121613061406551FF2CF4695F1DFB4
:1044300008C0161617061806991FF1CF8695710544
:10444000610508940895E894BB2766277727CB0178
:1044500097F908952F923F924F925F926F927F92B9
:104460008F929F92AF92BF92CF92DF92EF92FF9284
:104470000F931F93CF93DF93CDB7DEB7CA1BDB0B30
:104480000FB6F894DEBF0FBECDBF09942A883988D5
:1044900048885F846E847D848C849B84AA84B984DC
:1044A000C884DF80EE80FD800C811B81AA81B981E8
:1044B000CE0FD11D0FB6F894DEBF0FBECDBFED01FC
:1044C0000895A29FB001B39FC001A39F700D811DED
:1044D0001124911DB29F700D811D1124911D08950D
:1044E0005058BB27AA270E9488220C94F0210E94D2
:1044F000E22138F00E94E92120F039F49F3F19F4BD
:1045000026F40C94DF210EF4E095E7FB0C94D921FE
:10451000E92F0E94012258F3BA1762077307840734
:10452000950720F079F4A6F50C9423220EF4E0957B
:104530000B2EBA2FA02D0B01B90190010C01CA015D
:10454000A0011124FF27591B99F0593F50F4503E08
:1045500068F11A16F040A22F232F342F4427585FFA
:10456000F3CF469537952795A795F0405395C9F712
:104570007EF41F16BA0B620B730B840BBAF09150CA
:10458000A1F0FF0FBB1F661F771F881FC2F70EC069
:10459000BA0F621F731F841F48F48795779567953C
:1045A000B795F7959E3F08F0B0CF9395880F08F028
:1045B0009927EE0F9795879508950E94E4226894B5
:1045C000B1110C94242208950E94092288F09F576B
:1045D00098F0B92F9927B751B0F0E1F0660F771F27
:1045E000881F991F1AF0BA95C9F714C0B13091F01D
:1045F0000E942322B1E008950C942322672F782F84
:104600008827B85F39F0B93FCCF3869577956795E1
:10461000B395D9F73EF490958095709561957F4F4D
:104620008F4F9F4F08950E94B52108F48FEF089592
:10463000A1E21A2EAA1BBB1BFD010DC0AA1FBB1FA6
:10464000EE1FFF1FA217B307E407F50720F0A21B18
:10465000B30BE40BF50B661F771F881F991F1A9485
:1046600069F760957095809590959B01AC01BD01AF
:10467000CF0108950E946122332312F48A1B9B0B01
:104680000C9444230E946122B7FF0895821B930B70
:104690000895EE0FFF1F0590F491E02D09940F93FC
:1046A0001F93CF93DF938230910510F482E090E066
:1046B000E091FC02F091FD0230E020E0B0E0A0E0EB
:1046C000309799F42115310509F44AC0281B390B9C
:1046D00024303105D8F58A819B816115710589F1F6
:1046E000FB0193838283FE0111C0408151810281CD
:1046F000138148175907E0F04817590799F41097A4
:1047000061F012960C93129713961C933296CF0178
:10471000DF91CF911F910F9108950093FC021093A8
:10472000FD02F4CF2115310551F04217530738F03F
:10473000A901DB019A01BD01DF01F801C1CFEF0141
:10474000F9CF9093FD028093FC02CDCFFE01E20FE2
:10475000F31F819391932250310939832883D7CF56
:104760002091FA023091FB02232B41F420910201A7
:10477000309103013093FB022093FA022091000153
:10478000309101012115310541F42DB73EB740911B
:10479000040150910501241B350BE091FA02F091C0
:1047A000FB02E217F307A0F42E1B3F0B2817390773
:1047B00078F0AC014E5F5F4F2417350748F04E0F7D
:1047C0005F1F5093FB024093FA02819391939FCF16
:1047D000F0E0E0E09CCFCF93DF930097E9F0FC019D
:1047E000329713821282A091FC02B091FD02ED017A
:1047F00030E020E01097A1F420813181820F931FD7
:104800002091FA023091FB022817390709F061C0A4
:10481000F093FB02E093FA02DF91CF910895EA0151
:10482000CE17DF07E8F54A815B819E0141155105EE
:10483000B1F7E901FB83EA8349915991C40FD51F70
:10484000EC17FD0761F4808191810296840F951F1A
:10485000E90199838883828193819B838A83F0E035
:10486000E0E012968D919C9113970097B9F52D91E8
:104870003C911197CD010296820F931F2091FA026D
:104880003091FB022817390739F6309751F510920D
:10489000FD021092FC02B093FB02A093FA02BCCF7F
:1048A000D383C28340815181840F951FC817D907D4
:1048B00061F44E5F5F4F88819981480F591F518382
:1048C00040838A819B81938382832115310509F07E
:1048D000B0CFF093FD02E093FC029ECFFD01DC011E
:1048E000C0CF13821282D7CFB0E0A0E0EAE7F4E2B3
:1048F0000C942C228C01009751F4CB010E944F2381
:104900008C01C801CDB7DEB7E0E10C944822FC0170
:10491000E60FF71F9C0122503109E217F30708F454
:104920009DC0D901CD91DC911197C617D70798F09A
:10493000C530D10530F3CE0104978617970708F3E9
:10494000C61BD70B2297C193D1936D937C93CF0154
:104950000E94EB23D6CF5B01AC1ABD0A4C018C0E32
:104960009D1EA091FC02B091FD02512C412CF12C16
:10497000E12C109731F58091FA029091FB02881595
:10498000990509F05CC04616570608F058C080919A
:10499000000190910101009741F48DB79EB74091BD
:1049A000040150910501841B950BE817F90708F0E5
:1049B00055C0F093FB02E093FA02F9017183608322
:1049C000A0CF8D919C91119712966C90129713968F
:1049D0007C901397A815B90559F56C0142E0C40EF7
:1049E000D11CCA14DB0420F1AC014A195B09DA01BD
:1049F0001296159780F06282738251834083D901A9
:104A00006D937C93E114F10471F0D7011396FC933C
:104A1000EE93129776CF22968C0F9D1FF90191830A
:104A20008083F301EFCFF093FD02E093FC0269CFA6
:104A30004816590608F42C017D01D3019ACFCB0109
:104A40000E944F237C01009749F0AE01B8010E94FB
:104A50003625C8010E94EB23870153CF10E000E008
:104A600050CF81E090E0F8940C944625FB01DC01E6
:104A700002C001900D9241505040D8F70895FB01BB
:104A8000DC0101900D920020E1F70895F894FFCF2A
:104A90000000FE028000000000004D118E07A714E8
:104AA000A614D00AFC0E400ED70D560D970DF91323
:104AB000720E130FA70A740CE50C630CF6127E122B
:104AC0001F120416B20E680668046802680000002F
:104AD00000001A088E07BB076708EC07CA07DE0745
:104AE0000D0A0047616D653A2020202020496E693B
:104AF000740041726475696E6F0047616D653A209C
:104B000020202020537061776E20506C617965728F
:104B100000706C6179657200454D616E6167657208
:104B20003A20537061776E65642000506C6179653E
:104B30007220776974682049443A2000454D616EBF
:104B4000616765723A20746F74616C456E74697444
:104B50006965733A20006169720047616D653A20AA
:104B60002020202052756E0067726F756E64000001
:107800000C94343C0C94513C0C94513C0C94513CE1
:107810000C94513C0C94513C0C94513C0C94513CB4
:107820000C94513C0C94513C0C94513C0C94513CA4
:107830000C94513C0C94513C0C94513C0C94513C94
:107840000C94513C0C94513C0C94513C0C94513C84
:107850000C94513C0C94513C0C94513C0C94513C74
:107860000C94513C0C94513C11241FBECFEFD8E036
:10787000DEBFCDBF11E0A0E0B1E0ECE9FFE702C060
:1078800005900D92A230B107D9F712E0A2E0B1E065
:1078900001C01D92AD30B107E1F70E942D3D0C945F
:1078A000CC3F0C94003C982F959595959595959582
:1078B000905D8F708A307CF0282F295A8091C0000B
:1078C00085FFFCCF9093C6008091C00085FFFCCF60
:1078D0002093C6000895282F205DF0CF982F809127
:1078E000C00085FFFCCF9093C6000895EF92FF92F1
:1078F0000F931F93EE24FF2487018091C00087FD22
:1079000017C00894E11CF11C011D111D81E4E8164B
:1079100082E4F8068FE0080780E0180770F3E09132
:107920000401F091050109958091C00087FFE9CF1E
:107930008091C6001F910F91FF90EF9008950E94D3
:10794000763C982F8091C00085FFFCCF9093C600B5
:1079500091362CF490330CF09053892F089597555D
:10796000892F08951F930E949F3C182F0E949F3CCF
:107970001295107F810F1F9108951F93182F882350
:1079800021F00E94763C1150E1F71F9108951F935A
:10799000182F0E94763C803249F0809103018F5F5E
:1079A000809303018530C1F01F9108958091C0003C
:1079B00085FFFCCF84E18093C6008091C00085FFE5
:1079C000FCCF1093C6008091C00085FFFCCF80E102
:1079D0008093C6001F910895E0910401F091050184
:1079E00009951F9108950E94763C803241F0809164
:1079F00003018F5F80930301853081F008958091AA
:107A0000C00085FFFCCF84E18093C6008091C00058
:107A100085FFFCCF80E18093C6000895E0910401CA
:107A2000F09105010995089540E951E08823A1F0FE
:107A30002D9A28EE33E0FA013197F1F721503040CA
:107A4000D1F72D9828EE33E0FA013197F1F7215064
:107A50003040D1F7815061F708953F924F925F9285
:107A60006F927F928F929F92AF92BF92CF92DF924E
:107A7000EF92FF920F931F93CF93DF93000080E16B
:107A80008093C4001092C50088E18093C10086E015
:107A90008093C2005098589A259A81E00E94143D24
:107AA00024E1F22E9EE1E92E85E9D82E0FE0C02ECA
:107AB00010E1B12EAA24A394B1E49B2EA6E58A2E50
:107AC000F2E57F2EE0E26E2E79E4572E63E5462E36
:107AD00050E5352E0E94763C8033B1F18133B9F107
:107AE000803409F46FC0813409F476C0823409F41B
:107AF00085C0853409F488C0803531F1823521F1A3
:107B0000813511F1853509F485C0863509F48DC0BC
:107B1000843609F496C0843709F403C1853709F423
:107B200072C1863709F466C0809103018F5F80932C
:107B30000301853079F6E0910401F0910501099582
:107B40000E94763C803351F60E94F33CC3CF0E94E2
:107B5000763C803249F78091C00085FFFCCFF092DF
:107B6000C6008091C00085FFFCCF9092C600809136
:107B7000C00085FFFCCF8092C6008091C00085FFC9
:107B8000FCCF7092C6008091C00085FFFCCF609250
:107B9000C6008091C00085FFFCCF5092C600809146
:107BA000C00085FFFCCF4092C6008091C00085FFD9
:107BB000FCCF3092C6008091C00085FFFCCFB09210
:107BC000C60088CF0E94763C863808F4BDCF0E945C
:107BD000763C0E94F33C7ECF0E94763C803809F4CC
:107BE0009CC0813809F40BC1823809F43CC1883942
:107BF00009F48FC080E00E94C73C6CCF84E10E94F2
:107C0000BD3C0E94F33C66CF85E00E94BD3C0E94D3
:107C1000F33C60CF0E94763C809306010E94763C44
:107C2000809307010E94F33C55CF0E94763C80333D
:107C300009F41DC183E00E94BD3C80E00E94C73C66
:107C400049CF0E94763C809309020E94763C809343
:107C5000080280910C028E7F80930C020E94763C79
:107C6000853409F415C18091080290910902892B8D
:107C700089F000E010E00E94763CF801E85FFE4FDA
:107C800080830F5F1F4F80910802909109020817AF
:107C9000190788F30E94763C803209F045CF809125
:107CA0000C0280FF01C16091060170910701660F0F
:107CB000771F7093070160930601A0910802B091AD
:107CC00009021097C9F0E8E0F1E09B01AD014E0F09
:107CD0005F1FF999FECF32BD21BD819180BDFA9A17
:107CE000F99A2F5F3F4FE417F50799F76A0F7B1F4B
:107CF00070930701609306018091C00085FFFCCF5F
:107D0000F092C6008091C00085FFFCCFB092C60003
:107D1000E1CE83E00E94C73CDDCE82E00E94C73CFA
:107D2000D9CE0E94763C809309020E94763C8093D3
:107D300008028091060190910701880F991F909386
:107D40000701809306010E94763C853409F4A6C0A1
:107D500080910C028E7F80930C020E94763C8032D0
:107D600009F0B8CE8091C00085FFFCCFF092C6002C
:107D7000609108027091090261157105B9F140E046
:107D800050E080910C02A82FA170B82FB27011C0E2
:107D9000BB2309F45CC0E0910601F0910701319624
:107DA000F0930701E09306014F5F5F4F46175707B7
:107DB000E8F4AA2369F3F999FECF209106013091E6
:107DC000070132BD21BDF89A90B58091C00085FFB2
:107DD000FCCF9093C6002F5F3F4F30930701209355
:107DE00006014F5F5F4F4617570718F38091C00099
:107DF00085FDE5CE8091C00085FFF8CFE0CE81E023
:107E00000E94C73C67CE0E94763C803209F08CCE3F
:107E10008091C00085FFFCCFF092C6008091C00029
:107E200085FFFCCFE092C6008091C00085FFFCCFAB
:107E3000D092C6008091C00085FFFCCFC092C600E2
:107E40008091C00085FFFCCFB092C60043CEE09188
:107E50000601F091070194918091C00085FFFCCF4D
:107E60009093C6009CCF80E10E94C73C33CE0E9415
:107E7000763C0E94763C182F0E94763C112309F430
:107E800083C0113009F484C08FE00E94C73C22CE29
:107E900080910C02816080930C02E5CE80910C02EF
:107EA000816080930C0259CF809107018823880F4D
:107EB000880B8A2180930B02809106019091070123
:107EC000880F991F90930701809306018091080203
:107ED00080FF09C080910802909109020196909359
:107EE000090280930802F894F999FECF1127E091D6
:107EF0000601F0910701C8E0D1E08091080290915D
:107F00000902103091F40091570001700130D9F34B
:107F100003E000935700E89500915700017001308D
:107F2000D9F301E100935700E89509901990009169
:107F3000570001700130D9F301E000935700E89534
:107F40001395103498F011270091570001700130FB
:107F5000D9F305E000935700E895009157000170B0
:107F60000130D9F301E100935700E895329602976A
:107F700009F0C7CF103011F00296E5CF112480919F
:107F8000C00085FFB9CEBCCE8EE10E94C73CA2CD19
:0E7F900085E90E94C73C9ECDF894FFCF80008B
:00000001FF
